S011000041546D6567613136322E737265634B
S11300000C94B4010C94D1010C94D1010C94D10141
S11300100C94D1010C94D1010C94D1010C94D10114
S11300200C94D1010C94D1010C94D1010C94D10104
S11300300C94D1010C94D1010C94D1010C94D101F4
S11300400C94D1010C94D1010C94D1010C94D101E4
S11300500C94D1010C94D1010C94D1010C94D101D4
S11300600C94D1010C94D1010C94D1010C94D101C4
S1130070000000000000000000065F5F06000000B2
S11300800007070007070000147F7F147F7F140018
S1130090242E6B6B3A120000466630180C66620020
S11300A0307A4F5D377A48000407030000000000EF
S11300B0001C3E63410000000041633E1C00000040
S11300C0082A3E1C1C3E2A0808083E3E0808000078
S11300D000A0E0600000000008080808080800000C
S11300E000006060000000006030180C060301008E
S11300F03E7F594D7F3E000042427F7F40400000DA
S1130100627359496F660000226349497F360000D3
S1130110181C16137F7F1000276745457D390000A2
S11301203C7E4B4979300000036371190F070000CE
S1130130367F49497F360000064F49693F1E00005B
S113014000006C6C0000000000A0EC6C00000000DB
S1130150081C366341000000141414141414000025
S1130160004163361C080000020351590F060000C9
S11301703E7F415D5D1F1E007C7E13137E7C00006C
S1130180417F7F49497F36001C3E63414163220021
S1130190417F7F41637F1C00417F7F495D41630054
S11301A0417F7F491D0103001C3E6341517372006E
S11301B07F7F08087F7F000000417F7F41000000AF
S11301C0307040417F3F0100417F7F081C7763000E
S11301D0417F7F41406070007F7F060C067F7F0077
S11301E07F7F060C187F7F001C3E6341633E1C002A
S11301F0417F7F49090F06001E3F21717F5E000089
S1130200417F7F19396F460026674D597B320000C4
S113021003417F7F410300007F7F40407F7F0000D8
S11302201F3F60603F1F00007F7F3018307F7F00DA
S113023063771C081C776300074F78784F0700002A
S11302406773594D47637100007F7F41410000008F
S11302500103060C183060000041417F7F0000005C
S1130260080C0603060C0800808080808080808053
S11302700000030704000000207454543C7840003C
S1130280413F7F44447C3800387C44446C2800005F
S1130290307848493F7F4000387C54545C18000053
S11302A0487E7F490302000098BCA4A4F87C0400A3
S11302B0417F7F08047C780000447D7D400000007D
S11302C040C484FD7D000000417F7F10386C4400F1
S11302D000417F7F400000007C7C0C180C7C78007F
S11302E07C7C04047C780000387C44447C38000026
S11302F084FCF8A4243C1800183C24A4F8FC8400D2
S1130300447C78441C180000485C54547424000055
S113031000043E7F442400003C7C40403C7C400080
S11303201C3C60603C1C00003C7C6030607C3C00F9
S1130330446C3810386C44009CBCA0A0FC7C0000C9
S11303404C64745C4C64000008083E774141000032
S113035000000077770000004141773E0808000064
S1130360020301030203010011241FBECFEFD4E0F6
S1130370DEBFCDBF11E0A0E0B1E0E8E4F8E002C0E8
S113038005900D92A630B107D9F721E0A6E0B1E0BF
S113039001C01D92A631B207E1F70E94D3010C946B
S11303A022040C94000080E895E20E9453020E940B
S11303B06A020E94E5010E94320240E060E081E6A8
S11303C00E94110280E090E00895E0E0F0E1F093F3
S11303D00901E093080180E092E190930701809382
S11303E0060180E098E190930B0180930A018FEA63
S11303F0808380E2808310820895A0910601B091E9
S1130400070180E090E0E0910A01F0910B01E80F10
S1130410F91F20812C930196811524E0920799F706
S1130420089590E1499F600D1124660F660F660FD1
S1130430262F30E048E0849FC0011124DC01A85835
S1130440B040A901485F5F4FE0910A01F0910B01B0
S1130450E20FF31F8D9180832F5F3F4F24173507E1
S113046099F70895CF93DF93C0E0D0E0E0910A01BB
S1130470F0910B01EC0FFD1F10820E94FD012196EB
S1130480C11584E0D80791F7DF91CF91089580E0FA
S113049090E008955D9BFECF8CB908950E944A02B6
S11304A080E090E008959C0140E050E060E070EB53
S11304B084E090E00E947102215010BC29B988E1C7
S11304C08AB98EE880BD67E472E08EE492E00E940F
S11304D09302089585B7806885BF80B7806280BF26
S11304E00895A1E21A2EAA1BBB1BFD010DC0AA1F71
S11304F0BB1FEE1FFF1FA217B307E407F50720F089
S1130500A21BB30BE40BF50B661F771F881F991F03
S11305101A9469F760957095809590959B01AC014C
S1130520BD01CF0108950F931F93CF93DF930097DD
S113053031F46115710519F480E090E03AC08B0143
S1130540EC016EE070E081E090E00E94DE02FC01CC
S1130550892B91F380E883830115110571F01387CA
S1130560028781E8838380910C0190910D01892B8E
S113057021F4F0930D01E0930C012097C9F0D18789
S1130580C08783818260838380910E0190910F01E3
S1130590892B71F4F0930F01E0930E018091100107
S11305A090911101892B21F4F0931101E093100132
S11305B0CF01DF91CF911F910F9108950F931F9356
S11305C0CF93DF93869F8001879F100D969F100D18
S11305D01124C8010E94FA02EC01009729F0A80135
S11305E060E070E00E941B04CE01DF91CF911F9167
S11305F00F9108950F931F93CF93DF93823091054A
S113060010F482E090E0E0911401F091150120E0F3
S113061030E0A0E0B0E0309719F1408151810281CF
S1130620138148175907C8F08417950769F4109780
S113063031F012960C93129713961C9327C00093D3
S113064014011093150122C02115310519F0421728
S1130650530718F49A01BD01EF01DF01F801DBCF64
S113066021153105F9F0281B390B2430310580F4AC
S11306708A819B816115710521F0FB01938382833B
S113068004C09093150180931401FE01329644C076
S1130690FE01E20FF31F81939193225031093983B4
S11306A028833AC02091120130911301232B41F485
S11306B02091020130910301309313012093120120
S11306C020910001309101012115310541F42DB72C
S11306D03EB74091040150910501241B350BE09174
S11306E01201F0911301E217F307A0F42E1B3F0B44
S11306F02817390778F0AC014E5F5F4F2417350790
S113070048F04E0F5F1F50931301409312018193E1
S1130710919302C0E0E0F0E0CF01DF91CF911F910F
S11307200F910895CF93DF93009709F481C0FC01E2
S1130730329713821282A0911401B091150110977F
S113074081F420813181820F931F20911201309115
S113075013012817390751F5F0931301E09312019F
S113076067C0ED0120E030E0CE17DF0740F44A8196
S11307705B819E0141155105F1F0EA01F5CFD38368
S1130780C28340815181840F951FC817D90759F43A
S113079088819981840F951F0296918380838A8131
S11307A09B81938382832115310529F4F0931501EC
S11307B0E09314013DC0E901FB83EA834991599117
S11307C0C40FD51FEC17FD0761F480819181840F5C
S11307D0951F0296E90199838883828193819B8383
S11307E08A83E0E0F0E012968D919C911397009734
S11307F019F0FD01DC01F7CF8D919C9111979D01BA
S11308002E5F3F4F820F931F2091120130911301ED
S11308102817390769F4309729F4109215011092BA
S1130820140102C013821282B0931301A093120127
S1130830DF91CF910895DC0101C06D934150504088
S10B0840E0F70895F894FFCFDE
S10908480000160120006F
S9030000FC
