:100000000C9438000C9455000C9455000C94550039
:100010000C9455000C9455000C9455000C9455000C
:100020000C9455000C9455000C9455000C945500FC
:100030000C9455000C9455000C9455000C945500EC
:100040000C9455000C9455000C9455000C945500DC
:100050000C9455000C9455000C9455000C945500CC
:100060000C9455000C9455000C9455000C945500BC
:1000700011241FBECFEFD4E0DEBFCDBF11E0A0E062
:10008000B1E0E0EDF4E002C005900D92AC30B107B4
:10009000D9F721E0ACE0B1E001C01D92A631B20772
:1000A000E1F70E9474000C9466020C94000080E05A
:1000B00090E008959C0140E050E060E070EB84E047
:1000C00090E00E948500215010BC29B988E18AB9CE
:1000D0008EE880BD08955D9BFECF8CB908950E9487
:1000E0006B0080E090E0089580E895E20E945A005D
:1000F00067E570E08FE690E00E94A70086E091E05F
:100100000E94F20080E090E00895A1E21A2EAA1B5E
:10011000BB1BFD010DC0AA1FBB1FEE1FFF1FA217B7
:10012000B307E407F50720F0A21BB30BE40BF50BB4
:10013000661F771F881F991F1A9469F7609570953D
:10014000809590959B01AC01BD01CF0108950F935F
:100150001F93CF93DF93009731F46115710519F464
:1001600080E090E03AC08B01EC016EE070E081E04D
:1001700090E00E942201FC01892B91F380E88383A7
:100180000115110571F01387028781E8838380913F
:100190000C0190910D01892B21F4F0930D01E09356
:1001A0000C012097C9F0D187C08783818260838347
:1001B00080910E0190910F01892B71F4F0930F0142
:1001C000E0930E018091100190911101892B21F48F
:1001D000F0931101E0931001CF01DF91CF911F91B6
:1001E0000F9108950F931F93CF93DF93E0910E012A
:1001F000F0910F01238121FF1BC08C01D0E0C0E0F2
:10020000F80181918F0160910E0170910F01DB0166
:100210001896ED91FC911997882331F00995892B57
:1002200079F3DFEFCFEFECCF8AE00995892B19F056
:100230008FEF9FEF02C08D2F9C2FDF91CF911F91E9
:100240000F9108950F931F93CF93DF93869F8001A3
:10025000879F100D969F100D1124C8010E943E012A
:10026000EC01009729F0A80160E070E00E945F02B5
:10027000CE01DF91CF911F910F9108950F931F939E
:10028000CF93DF938230910510F482E090E0E0910B
:100290001401F091150120E030E0A0E0B0E03097CB
:1002A00019F1408151810281138148175907C8F023
:1002B0008417950769F4109731F012960C931297F2
:1002C00013961C9327C0009314011093150122C0AC
:1002D0002115310519F04217530718F49A01BD0191
:1002E000EF01DF01F801DBCF21153105F9F0281B03
:1002F000390B2430310580F48A819B8161157105A9
:1003000021F0FB019383828304C0909315018093B5
:100310001401FE01329644C0FE01E20FF31F8193E7
:10032000919322503109398328833AC020911201D8
:1003300030911301232B41F42091020130910301EC
:10034000309313012093120120910001309101019B
:100350002115310541F42DB73EB74091040150916C
:100360000501241B350BE0911201F0911301E217F6
:10037000F307A0F42E1B3F0B2817390778F0AC01C8
:100380004E5F5F4F2417350748F04E0F5F1F5093A5
:100390001301409312018193919302C0E0E0F0E0D9
:1003A000CF01DF91CF911F910F910895CF93DF93EC
:1003B000009709F481C0FC01329713821282A09148
:1003C0001401B0911501109781F420813181820FC1
:1003D000931F20911201309113012817390751F50D
:1003E000F0931301E093120167C0ED0120E030E0CB
:1003F000CE17DF0740F44A815B819E01411551050C
:10040000F1F0EA01F5CFD383C28340815181840F9B
:10041000951FC817D90759F488819981840F951FB2
:100420000296918380838A819B81938382832115A5
:10043000310529F4F0931501E09314013DC0E90161
:10044000FB83EA8349915991C40FD51FEC17FD072F
:1004500061F480819181840F951F0296E90199834F
:100460008883828193819B838A83E0E0F0E0129607
:100470008D919C911397009719F0FD01DC01F7CF46
:100480008D919C9111979D012E5F3F4F820F931F7D
:1004900020911201309113012817390769F4309720
:1004A00029F4109215011092140102C013821282D5
:1004B000B0931301A0931201DF91CF910895DC0155
:1004C00001C06D9341505040E0F70895F894FFCF7C
:0C04D00000001601200048656C6C6F00F5
:00000001FF
